{
  "_format": "hh-sol-artifact-1",
  "contractName": "TokenVaultSecret",
  "sourceName": "contracts/TokenVaultSecret.sol",
  "abi": [
    {
      "inputs": [
        {
          "internalType": "address",
          "name": "_tkxToken",
          "type": "address"
        }
      ],
      "stateMutability": "nonpayable",
      "type": "constructor"
    },
    {
      "inputs": [],
      "name": "CONTRACT_SECRET",
      "outputs": [
        {
          "internalType": "uint256",
          "name": "",
          "type": "uint256"
        }
      ],
      "stateMutability": "view",
      "type": "function"
    },
    {
      "inputs": [
        {
          "internalType": "address",
          "name": "from",
          "type": "address"
        },
        {
          "internalType": "uint256",
          "name": "amount",
          "type": "uint256"
        }
      ],
      "name": "deposit",
      "outputs": [],
      "stateMutability": "nonpayable",
      "type": "function"
    },
    {
      "inputs": [
        {
          "internalType": "address",
          "name": "userAddress",
          "type": "address"
        }
      ],
      "name": "getBalance",
      "outputs": [
        {
          "internalType": "uint256",
          "name": "",
          "type": "uint256"
        }
      ],
      "stateMutability": "view",
      "type": "function"
    },
    {
      "inputs": [
        {
          "internalType": "address",
          "name": "userAddress",
          "type": "address"
        }
      ],
      "name": "getUserInfo",
      "outputs": [
        {
          "components": [
            {
              "internalType": "bytes32",
              "name": "randomCode",
              "type": "bytes32"
            },
            {
              "internalType": "uint256",
              "name": "amount",
              "type": "uint256"
            }
          ],
          "internalType": "struct TokenVaultSecret.User",
          "name": "",
          "type": "tuple"
        }
      ],
      "stateMutability": "view",
      "type": "function"
    },
    {
      "inputs": [],
      "name": "tkxToken",
      "outputs": [
        {
          "internalType": "address",
          "name": "",
          "type": "address"
        }
      ],
      "stateMutability": "view",
      "type": "function"
    },
    {
      "inputs": [
        {
          "internalType": "address",
          "name": "",
          "type": "address"
        }
      ],
      "name": "users",
      "outputs": [
        {
          "internalType": "bytes32",
          "name": "randomCode",
          "type": "bytes32"
        },
        {
          "internalType": "uint256",
          "name": "amount",
          "type": "uint256"
        }
      ],
      "stateMutability": "view",
      "type": "function"
    },
    {
      "inputs": [
        {
          "internalType": "address",
          "name": "to",
          "type": "address"
        },
        {
          "internalType": "bytes32",
          "name": "randomCode",
          "type": "bytes32"
        },
        {
          "internalType": "uint256",
          "name": "wdAmount",
          "type": "uint256"
        }
      ],
      "name": "withdraw",
      "outputs": [],
      "stateMutability": "nonpayable",
      "type": "function"
    },
    {
      "inputs": [
        {
          "internalType": "address",
          "name": "to",
          "type": "address"
        },
        {
          "internalType": "bytes32",
          "name": "randomCode",
          "type": "bytes32"
        }
      ],
      "name": "withdrawAll",
      "outputs": [],
      "stateMutability": "nonpayable",
      "type": "function"
    }
  ],
  "bytecode": "0x608060405234801561001057600080fd5b506040516106cb3803806106cb83398101604081905261002f91610054565b600080546001600160a01b0319166001600160a01b0392909216919091179055610084565b60006020828403121561006657600080fd5b81516001600160a01b038116811461007d57600080fd5b9392505050565b610638806100936000396000f3fe608060405234801561001057600080fd5b50600436106100885760003560e01c80636386c1c71161005b5780636386c1c7146100e6578063a87430ba14610156578063d5f149f514610192578063f8b2cb4f146101bd57600080fd5b8063182ce11c1461008d578063196d5321146100a25780632917173a146100c057806347e7ef24146100d3575b600080fd5b6100a061009b36600461051f565b6101ea565b005b6100ad63075bcd1581565b6040519081526020015b60405180910390f35b6100a06100ce366004610549565b6102fd565b6100a06100e136600461051f565b610403565b61013b6100f436600461057c565b6040805180820190915260008082526020820152506001600160a01b0316600090815260016020818152604092839020835180850190945280548452909101549082015290565b604080518251815260209283015192810192909252016100b7565b61017d61016436600461057c565b6001602081905260009182526040909120805491015482565b604080519283526020830191909152016100b7565b6000546101a5906001600160a01b031681565b6040516001600160a01b0390911681526020016100b7565b6100ad6101cb36600461057c565b6001600160a01b03166000908152600160208190526040909120015490565b6001600160a01b038216600090815260016020818152604092839020835180850190945280548085529201549083018190529083146102665760405162461bcd60e51b8152602060048201526013602482015272496e76616c69642072616e646f6d20636f646560681b60448201526064015b60405180910390fd5b6001600160a01b0384811660008181526001602081905260408083209091018290559054905163a9059cbb60e01b81526004810192909252602482018490529091169063a9059cbb906044015b6020604051808303816000875af11580156102d2573d6000803e3d6000fd5b505050506040513d601f19601f820116820180604052508101906102f6919061059e565b5050505050565b6001600160a01b038316600090815260016020818152604092839020835180850190945280548085529201549083015283146103715760405162461bcd60e51b8152602060048201526013602482015272496e76616c69642072616e646f6d20636f646560681b604482015260640161025d565b81816020015110156103b55760405162461bcd60e51b815260206004820152600d60248201526c115e18d9595908185b5bdd5b9d609a1b604482015260640161025d565b81816020018181516103c791906105d6565b90525060005460405163a9059cbb60e01b81526001600160a01b038681166004830152602482018590529091169063a9059cbb906044016102b3565b6040516bffffffffffffffffffffffff19606084901b1660208201526034810182905263075bcd15605482015260009060740160408051808303601f190181529082905280516020909101206000546323b872dd60e01b83526001600160a01b0386811660048501523060248501526044840186905291935016906323b872dd906064016020604051808303816000875af11580156104a6573d6000803e3d6000fd5b505050506040513d601f19601f820116820180604052508101906104ca919061059e565b506001600160a01b038316600090815260016020819052604082208381550180548492906104f99084906105ef565b9091555050505050565b80356001600160a01b038116811461051a57600080fd5b919050565b6000806040838503121561053257600080fd5b61053b83610503565b946020939093013593505050565b60008060006060848603121561055e57600080fd5b61056784610503565b95602085013595506040909401359392505050565b60006020828403121561058e57600080fd5b61059782610503565b9392505050565b6000602082840312156105b057600080fd5b8151801515811461059757600080fd5b634e487b7160e01b600052601160045260246000fd5b818103818111156105e9576105e96105c0565b92915050565b808201808211156105e9576105e96105c056fea2646970667358221220c5dfa223c28435cfc0bd1cba38ceea6c7a8dd5d2f8e54b8013ee6dfa5196926c64736f6c63430008140033",
  "linkReferences": {},
  "deployedLinkReferences": {}
}