{
  "_format": "hh-sol-artifact-1",
  "contractName": "TokenVaultSecretUI",
  "sourceName": "contracts/TokenVaultSecretUI.sol",
  "abi": [
    {
      "inputs": [],
      "stateMutability": "nonpayable",
      "type": "constructor"
    },
    {
      "inputs": [],
      "name": "CONTRACT_SECRET",
      "outputs": [
        {
          "internalType": "uint256",
          "name": "",
          "type": "uint256"
        }
      ],
      "stateMutability": "view",
      "type": "function"
    },
    {
      "inputs": [
        {
          "internalType": "address",
          "name": "from",
          "type": "address"
        },
        {
          "internalType": "uint256",
          "name": "amount",
          "type": "uint256"
        },
        {
          "internalType": "address",
          "name": "tkAddr",
          "type": "address"
        }
      ],
      "name": "deposit",
      "outputs": [
        {
          "internalType": "bytes32",
          "name": "",
          "type": "bytes32"
        }
      ],
      "stateMutability": "nonpayable",
      "type": "function"
    },
    {
      "inputs": [
        {
          "internalType": "address",
          "name": "userAddress",
          "type": "address"
        },
        {
          "internalType": "address",
          "name": "tkAddr",
          "type": "address"
        }
      ],
      "name": "getBalance",
      "outputs": [
        {
          "internalType": "uint256",
          "name": "",
          "type": "uint256"
        }
      ],
      "stateMutability": "view",
      "type": "function"
    },
    {
      "inputs": [
        {
          "internalType": "address",
          "name": "addr",
          "type": "address"
        },
        {
          "internalType": "address",
          "name": "tkAddr",
          "type": "address"
        }
      ],
      "name": "getHashPair",
      "outputs": [
        {
          "internalType": "bytes32",
          "name": "",
          "type": "bytes32"
        }
      ],
      "stateMutability": "pure",
      "type": "function"
    },
    {
      "inputs": [
        {
          "internalType": "address",
          "name": "userAddress",
          "type": "address"
        },
        {
          "internalType": "address",
          "name": "tkAddr",
          "type": "address"
        }
      ],
      "name": "getUserInfo",
      "outputs": [
        {
          "components": [
            {
              "internalType": "bytes32",
              "name": "randomCode",
              "type": "bytes32"
            },
            {
              "internalType": "uint256",
              "name": "amount",
              "type": "uint256"
            }
          ],
          "internalType": "struct TokenVaultSecretUI.User",
          "name": "",
          "type": "tuple"
        }
      ],
      "stateMutability": "view",
      "type": "function"
    },
    {
      "inputs": [
        {
          "internalType": "bytes32",
          "name": "",
          "type": "bytes32"
        }
      ],
      "name": "users",
      "outputs": [
        {
          "internalType": "bytes32",
          "name": "randomCode",
          "type": "bytes32"
        },
        {
          "internalType": "uint256",
          "name": "amount",
          "type": "uint256"
        }
      ],
      "stateMutability": "view",
      "type": "function"
    },
    {
      "inputs": [
        {
          "internalType": "address",
          "name": "to",
          "type": "address"
        },
        {
          "internalType": "bytes32",
          "name": "randomCode",
          "type": "bytes32"
        },
        {
          "internalType": "uint256",
          "name": "amount",
          "type": "uint256"
        },
        {
          "internalType": "address",
          "name": "tkAddr",
          "type": "address"
        }
      ],
      "name": "withdraw",
      "outputs": [],
      "stateMutability": "nonpayable",
      "type": "function"
    },
    {
      "inputs": [
        {
          "internalType": "address",
          "name": "to",
          "type": "address"
        },
        {
          "internalType": "bytes32",
          "name": "randomCode",
          "type": "bytes32"
        },
        {
          "internalType": "address",
          "name": "tkAddr",
          "type": "address"
        }
      ],
      "name": "withdrawAll",
      "outputs": [],
      "stateMutability": "nonpayable",
      "type": "function"
    }
  ],
  "bytecode": "0x608060405234801561001057600080fd5b506106d9806100206000396000f3fe608060405234801561001057600080fd5b50600436106100885760003560e01c8063cea6ab981161005b578063cea6ab98146100e6578063d4fac45d14610122578063f2801fe714610135578063f45346dc1461016357600080fd5b8063196d53211461008d5780637b09aa55146100ab5780638103d1fb146100be57806392a453a5146100d3575b600080fd5b61009863075bcd1581565b6040519081526020015b60405180910390f35b6100986100b9366004610570565b610176565b6100d16100cc3660046105a3565b6101c6565b005b6100d16100e13660046105df565b6102c4565b61010d6100f4366004610625565b6000602081905290815260409020805460019091015482565b604080519283526020830191909152016100a2565b610098610130366004610570565b6103d2565b610148610143366004610570565b6103f9565b604080518251815260209283015192810192909252016100a2565b6100986101713660046105a3565b610445565b6040805180820182526001600160a01b0384811680835284821660209384019081528451808501929092525190911681840152825180820384018152606090910190925281519101205b92915050565b60006101d28483610176565b6000818152602081905260409020600181015490549192509084146102345760405162461bcd60e51b8152602060048201526013602482015272496e76616c69642072616e646f6d20636f646560681b60448201526064015b60405180910390fd5b600082815260208190526040808220600101919091555163a9059cbb60e01b81526001600160a01b0386811660048301526024820183905284169063a9059cbb906044015b6020604051808303816000875af1158015610298573d6000803e3d6000fd5b505050506040513d601f19601f820116820180604052508101906102bc919061063e565b505050505050565b60006102d08583610176565b60008181526020819052604090205490915084146103265760405162461bcd60e51b8152602060048201526013602482015272496e76616c69642072616e646f6d20636f646560681b604482015260640161022b565b6000818152602081905260409020600101548311156103775760405162461bcd60e51b815260206004820152600d60248201526c115e18d9595908185b5bdd5b9d609a1b604482015260640161022b565b6000818152602081905260408120600101805485929061039890849061067d565b909155505060405163a9059cbb60e01b81526001600160a01b0386811660048301526024820185905283169063a9059cbb90604401610279565b6000806103df8484610176565b600090815260208190526040902060010154949350505050565b604080518082019091526000808252602082015260006104198484610176565b600090815260208181526040918290208251808401909352805483526001015490820152949350505050565b6040516bffffffffffffffffffffffff19606085811b8216602084015283901b16603482015263075bcd156048820152600090819060680160408051808303601f190181529082905280516020909101206323b872dd60e01b82526001600160a01b038781166004840152306024840152604483018790529092508416906323b872dd906064016020604051808303816000875af11580156104eb573d6000803e3d6000fd5b505050506040513d601f19601f8201168201806040525081019061050f919061063e565b50600061051c8685610176565b600081815260208190526040812084815560010180549293508792909190610545908490610690565b90915550919695505050505050565b80356001600160a01b038116811461056b57600080fd5b919050565b6000806040838503121561058357600080fd5b61058c83610554565b915061059a60208401610554565b90509250929050565b6000806000606084860312156105b857600080fd5b6105c184610554565b9250602084013591506105d660408501610554565b90509250925092565b600080600080608085870312156105f557600080fd5b6105fe85610554565b9350602085013592506040850135915061061a60608601610554565b905092959194509250565b60006020828403121561063757600080fd5b5035919050565b60006020828403121561065057600080fd5b8151801515811461066057600080fd5b9392505050565b634e487b7160e01b600052601160045260246000fd5b818103818111156101c0576101c0610667565b808201808211156101c0576101c061066756fea264697066735822122095e58c9d828ca424b76fe936ae322964fa1cbf2b2a8c694eca74880c4949328c64736f6c63430008140033",
  "linkReferences": {},
  "deployedLinkReferences": {}
}