{
  "_format": "hh-sol-artifact-1",
  "contractName": "TokenVault",
  "sourceName": "contracts/TokenVault.sol",
  "abi": [
    {
      "inputs": [
        {
          "internalType": "address",
          "name": "_tkxToken",
          "type": "address"
        }
      ],
      "stateMutability": "nonpayable",
      "type": "constructor"
    },
    {
      "anonymous": false,
      "inputs": [
        {
          "indexed": true,
          "internalType": "address",
          "name": "from",
          "type": "address"
        },
        {
          "indexed": true,
          "internalType": "address",
          "name": "to",
          "type": "address"
        },
        {
          "indexed": false,
          "internalType": "uint256",
          "name": "value",
          "type": "uint256"
        }
      ],
      "name": "Transfer",
      "type": "event"
    },
    {
      "inputs": [
        {
          "internalType": "address",
          "name": "",
          "type": "address"
        }
      ],
      "name": "balances",
      "outputs": [
        {
          "internalType": "uint256",
          "name": "",
          "type": "uint256"
        }
      ],
      "stateMutability": "view",
      "type": "function"
    },
    {
      "inputs": [
        {
          "internalType": "address",
          "name": "from",
          "type": "address"
        },
        {
          "internalType": "uint256",
          "name": "amount",
          "type": "uint256"
        }
      ],
      "name": "deposit",
      "outputs": [],
      "stateMutability": "nonpayable",
      "type": "function"
    },
    {
      "inputs": [
        {
          "internalType": "address",
          "name": "",
          "type": "address"
        }
      ],
      "name": "depositedAmounts",
      "outputs": [
        {
          "internalType": "uint256",
          "name": "",
          "type": "uint256"
        }
      ],
      "stateMutability": "view",
      "type": "function"
    },
    {
      "inputs": [
        {
          "internalType": "address",
          "name": "sender",
          "type": "address"
        }
      ],
      "name": "getDepositedAmount",
      "outputs": [
        {
          "internalType": "uint256",
          "name": "",
          "type": "uint256"
        }
      ],
      "stateMutability": "view",
      "type": "function"
    },
    {
      "inputs": [],
      "name": "tkxToken",
      "outputs": [
        {
          "internalType": "address",
          "name": "",
          "type": "address"
        }
      ],
      "stateMutability": "view",
      "type": "function"
    },
    {
      "inputs": [
        {
          "internalType": "address",
          "name": "from",
          "type": "address"
        },
        {
          "internalType": "uint256",
          "name": "amount",
          "type": "uint256"
        }
      ],
      "name": "withdraw",
      "outputs": [],
      "stateMutability": "nonpayable",
      "type": "function"
    }
  ],
  "bytecode": "0x608060405234801561001057600080fd5b5060405161053738038061053783398101604081905261002f91610054565b600080546001600160a01b0319166001600160a01b0392909216919091179055610084565b60006020828403121561006657600080fd5b81516001600160a01b038116811461007d57600080fd5b9392505050565b6104a4806100936000396000f3fe608060405234801561001057600080fd5b50600436106100625760003560e01c806327e235e31461006757806347e7ef241461009a578063d4b73972146100af578063d5f149f5146100cf578063e9081ec7146100fa578063f3fef3a314610123575b600080fd5b610087610075366004610400565b60026020526000908152604090205481565b6040519081526020015b60405180910390f35b6100ad6100a8366004610422565b610136565b005b6100876100bd366004610400565b60016020526000908152604090205481565b6000546100e2906001600160a01b031681565b6040516001600160a01b039091168152602001610091565b610087610108366004610400565b6001600160a01b031660009081526001602052604090205490565b6100ad610131366004610422565b610249565b6000811161018b5760405162461bcd60e51b815260206004820152601d60248201527f416d6f756e74206d7573742062652067726561746572207468616e203000000060448201526064015b60405180910390fd5b6000546040516323b872dd60e01b81526001600160a01b03848116600483015230602483015260448201849052909116906323b872dd906064016020604051808303816000875af11580156101e4573d6000803e3d6000fd5b505050506040513d601f19601f82011682018060405250810190610208919061044c565b506001600160a01b03909116600081815260026020908152604080832080548690039055308352808320805486019055928252600190522080549091019055565b600081116102995760405162461bcd60e51b815260206004820152601d60248201527f416d6f756e74206d7573742062652067726561746572207468616e20300000006044820152606401610182565b6001600160a01b03821660009081526001602052604090205481116102f85760405162461bcd60e51b81526020600482015260156024820152740c8cae0dee6d2e840d2e640dcdee840cadcdeeaced605b1b6044820152606401610182565b60005460405163a9059cbb60e01b81526001600160a01b038481166004830152602482018490529091169063a9059cbb906044016020604051808303816000875af115801561034b573d6000803e3d6000fd5b505050506040513d601f19601f8201168201806040525081019061036f919061044c565b50306000818152600260209081526040808320805486900390556001600160a01b038616808452818420805487019055600183529281902080548690039055518481529192917fddf252ad1be2c89b69c2b068fc378daa952ba7f163c4a11628f55a4df523b3ef910160405180910390a35050565b80356001600160a01b03811681146103fb57600080fd5b919050565b60006020828403121561041257600080fd5b61041b826103e4565b9392505050565b6000806040838503121561043557600080fd5b61043e836103e4565b946020939093013593505050565b60006020828403121561045e57600080fd5b8151801515811461041b57600080fdfea2646970667358221220adc25e8073e6da9d94312dcf85c8694e65cdb6bd8c7104ba4d1992f4cda6289e64736f6c63430008140033",
  "linkReferences": {},
  "deployedLinkReferences": {}
}